8604856   51084258841100 D-8604856   51c5e9f6-62a6-4d3b-bf51-62b082ad3473ENQ                                 LDM             11/10/2025M         AMARA                         FAOUZI              22/05/1977PARIS                                             75        FRANCE                                                        25/09/2025PAT                  30/09/2025   24.00   24.00    0.00       0       0                                                                   ETAGE 2 APPT 21                                                 5 AV MAUREL AGRICOL                                             13120     GARDANNE                        FRANCE                          07 68 59 12 44                                                                                                                                                                                                                                                                                                                                                                                                                                                                                                                                                                                                                                                                                                                                                                                                                                                                                                                                                                                                                                                                                                                                                                                                                                                                                                                                                                                                                                                                                                                                                                                                                                                                                                                                                                                                                                                                                                                                                                                                       
9105446   00000047609    D-9105446   5d0ec2b4-79df-4ad1-9f17-5fb1072b1513ENQ                                 LDM             11/10/2025MME       AINGISI                       CHRISTIANE          14/05/1971CAYENNE                                           973       FRANCE                                                        25/09/2025PA                   30/09/2025   24.00   24.00    0.00       0       0                                                                   APPT 3                                                          3B R.JACQUES MAILLARD  DUMESLE                                  97300     CAYENNE                         FRANCE                                                                                                                                                                                                                                                                                                                                                                                                                                                                                                                                                                                                                                                                                                                                                                                                                                                                                                                                                                                                                                                                                                                                                                                                                                                                                                                                                                                                                                                                                                                                                                                                                                                                                                                                                                                                                                                                                                                                                                                                                                               
8293219   50881803431100 D-8293219   d858d73d-25ff-4589-b287-553ab3a96553ENQ                                 LDM             11/10/2025M         GONCALVES                     ANTON               12/07/1991LYON 4E ARRONDISSEMENT                            69        FRANCE                                                        25/09/2025PA                   30/09/2025   24.00   24.00    0.00       0       0                                                                   CHEZ MR OKHOTA MEUNIER                                          1 PLACE ABBE LARUE                                              69005     LYON                            FRANCE                                                                                                                                                                                                                                                                                                                                                                                                                                                                                                                                                                                                                                                                                                                                                                                                                                                                                                                                                                                                                                                                                                                                                                                                                                                                                                                                                                                                                                                                                                                                                                                                                                                                                                                                                                                                                                                                                                                                                                                                                                               
8296929   50995948211100 D-8296929   9647f7f1-4a0d-46e9-b7cd-6478b989c188ENQ                                 LDM             11/10/2025MME       LARAIN                        DALYSE              13/09/1976POINTE-A-PITRE                                    971       FRANCE                                                        25/09/2025PAT                  30/09/2025   24.00   24.00    0.00       0       0                                                                                                                                   38 SENTE DE LA PROVODE                                          91480     VARENNES JARCY                  FRANCE                          06 35 16 81 62                                                                                                                                                                                                                                                                                                                                                                                                                                                                                                                                                                                                                                                                                               N D'USAGE GUIMBI                                                                                                                                                                                                                                                                                                                                                                                                                                                                                                                                                                                                                                                                                                                                                                                                                                                                                                                                                                                                                                                                                                                                                                                                                                                                                        
3749503   52022237525    D-3749503   04b0fb1a-9778-4953-bb3b-d8dff544f0ebENQ                                 LDM             11/10/2025M         TORPOS                        WILLY               29/11/1974SAINT-LOUIS                                       971       FRANCE                                                        25/09/2025PAT                  30/09/2025   24.00   24.00    0.00       0       0                                                                                                                                   9 B AV DU GRAND CHENE                                           93160     NOISY LE GRAND                  FRANCE                          06 30 82 84 99                                                                                                                                                                                                                                                                                                                                                                                                                                                                                                                                                                                                                                                                                                                                                                                                                                                                                                                                                                                                                                                                                                                                                                                                                                                                                                                                                                                                                                                                                                                                                                                                                                                                                                                                                                                                                                                                                                                                                                                                       
8595099   50240226339006 D-8595099   3c91c3e4-8104-45e1-9338-a4203cb64a70ENQ                                 LDM             11/10/2025MME       HANOT                         ZEMFIRA             30/09/1968TATARSTAN                                         99        RUSSIE                          AKHMETOVA                     25/09/2025PAT                  30/09/2025   24.00   24.00    0.00       0       0                                                                   APPT 4                                                          253 ALLEE DES HIRONDELLES                                       44240     SUCE SUR ERDRE                  FRANCE                          07 64 01 92 81                                                                                                                                                                                                                                                                                                                                                                                                                                                                                                                                                                                                                                                                                                                                                                                                                                                                                                                                                                                                                                                                                                                                                                                                                                                                                                                                                                                                                                                                                                                                                                                                                                                                                                                                                                                                                                                                                                                                                                                                       
8295639   51158470215100 D-8295639   b36ff5d3-2db4-4792-9530-672065622b0cENQ                                 LDM             11/10/2025M         YENBOU                        OMAR                25/07/1980LE BLANC-MESNIL                                   93        FRANCE                                                        25/09/2025PAT                  30/09/2025   24.00   24.00    0.00       0       0                                                                                                                                   21 RUE DE BOUGAINVILLE                                          93600     AULNAY SOUS BOIS                FRANCE                          07 45 63 14 18                                                                                                                                                                                                                                                                                                                                                                                                                                                                                                                                                                                                                                                                                                                                                                                                                                                                                                                                                                                                                                                                                                                                                                                                                                                                                                                                                                                                                                                                                                                                                                                                                                                                                                                                                                                                                                                                                                                                                                                                       
9107693   00000320253    D-9107693   ca386a94-0382-4afd-8f93-3d1d9cd05627ENQ                                 LDM             11/10/2025M         MESDOUZE                      CLAUDIO             17/01/1982FORT-DE-FRANCE                                    99        MARTINIQUE                                                    25/09/2025PAT                  30/09/2025   24.00   24.00    0.00       0       0                                                                                                                                   197 AV TI EMILE CASERUS                                         97200     FORT DE FRANCE                  FRANCE                          06 96 80 02 60                                                                                                                                                                                                                                                                                                                                                                                                                                                                                                                                                                                                                                                                                                                                                                                                                                                                                                                                                                                                                                                                                                                                                                                                                                                                                                                                                                                                                                                                                                                                                                                                                                                                                                                                                                                                                                                                                                                                                                                                       
8291283   50344460871100 D-8291283   7665b574-fa78-4a4d-9fff-598912652b1aENQ                                 LDM             06/09/2025MME       KOUNDI                        GENEVIEVE           26/02/1966                                                  99        REPUBLIQUE DEMOCRATIQUE DU CONGO                              25/09/2025PAT                  30/09/2025   24.00   24.00    0.00       0       0                                                                   PORTE 145 BAT C                                                 17 RUE DU CENTRE                                                93700     DRANCY                          FRANCE                          06 61 77 62 23                                                                                                                                                                                                                                                                                                                                                                                                                                                                                                                                                                                                                                                                                                                                                                                                                                                                                                                                                                                                                                                                                                                                                                                                                                                                                                                                                                                                                                                                                                                                                                                                                                                                                                                                                                                                                                                                                                                                                                                                       
8594433   50908026862100 D-8594433   1619d158-6516-4181-988f-64f30181861aENQ                                 LDM             11/10/2025MME       RETIEL                        RACHIDA             13/11/1971ARGENTEUIL                                        95        FRANCE                                                        25/09/2025PAT                  30/09/2025   24.00   24.00    0.00       0       0                                                                                                                                   2 ALLEE SOULIZARD                                               95100     ARGENTEUIL                      FRANCE                          06 49 92 87 74                                                                                                                                                                                                                                                                                                                                                                                                                                                                                                                                                                                                                                                                                                                                                                                                                                                                                                                                                                                                                                                                                                                                                                                                                                                                                                                                                                                                                                                                                                                                                                                                                                                                                                                                                                                                                                                                                                                                                                                                       
7347017   50602490331100 D-7347017   943e419b-4671-4b01-8647-47d1ba3f5adbENQ                                 LDM             11/10/2025MME       ANTONELLI                     NOELIE              07/08/1949MARSEILLE 5E ARRONDISSEMENT                       13        FRANCE                                                        25/09/2025PA                   30/09/2025   24.00   24.00    0.00       0       0                                                                   BAT A                                                           20 RUE MAVALAL                                                  13002     MARSEILLE                       FRANCE                                                                                                                                                                                                                                                                                                                                                                                                                                                                                                                                                                                                                                                                                                                                                                                                                                                                                                                                                                                                                                                                                                                                                                                                                                                                                                                                                                                                                                                                                                                                                                                                                                                                                                                                                                                                                                                                                                                                                                                                                                               
8633712   42984590712100 D-8633712   331e375e-a683-4b00-b04c-5857be427d11ENQ                                 LDM             11/10/2025MME       BELLONIE                      LOUTCHIANA          15/05/2001SAINT-POL-SUR-MER                                 59        FRANCE                          BELLONIE                      25/09/2025PAT                  30/09/2025   24.00   24.00    0.00       0       0                                                                   CCAS                                                            2 ALLEE DES AULNES                                              37000     TOURS                           FRANCE                          07 80 48 25 42                                                                                                                                                                                                                                                                                                                                                                                                                                                                                                                                                                                                                                                                                                                                                                                                                                                                                                                                                                                                                                                                                                                                                                                                                                                                                                                                                                                                                                                                                                                                                                                                                                                                                                                                                                                                                                                                                                                                                                                                       
8597185   50903152912100 D-8597185   b0c0333d-15f1-4989-92f1-4fcecb3b7489ENQ                                 LDM             11/10/2025M         VIAULT                        JEREMY              02/10/1984ORLEANS                                           45        FRANCE                                                        25/09/2025PAT                  30/09/2025   24.00   24.00    0.00       0       0                                                                   CHEZ MME PERDOUX SANDRINE                                       21 RUE DES MUIDS                                                45380     LA CHAPELLE ST MESMIN           FRANCE                          06 35 15 92 28                                                                                                                                                                                                                                                                                                                                                                                                                                                                                                                                                                                                                                                                                                                                                                                                                                                                                                                                                                                                                                                                                                                                                                                                                                                                                                                                                                                                                                                                                                                                                                                                                                                                                                                                                                                                                                                                                                                                                                                                       
8013918   43754456471100 D-8013918   e932c055-4a3e-422c-8b09-2b0319b3e418ENQ                                 LDM             11/10/2025M         ARAUJO DOMINCIANO             GUILHERME           07/07/1988FRANCA                                            99        BRESIL                                                        25/09/2025PA                   30/09/2025   24.00   24.00    0.00       0       0                                                                                                                                   41 RUE DU GENERAL SAUSSIER                                      10000     TROYES                          FRANCE                                                                                                                                                                                                                                                                                                                                                                                                                                                                                                                                                                                                                                                                                                                                                                                                                                                                                                                                                                                                                                                                                                                                                                                                                                                                                                                                                                                                                                                                                                                                                                                                                                                                                                                                                                                                                                                                                                                                                                                                                                               
8291189   50526474001100 D-8291189   5596f91a-ef54-4599-ac3e-546b28c7d2c2ENQ                                 LDM             11/10/2025MME       FRIEDMANN                     CATHERINE           27/03/1957NEUILLY-SUR-SEINE                                 92        FRANCE                                                        25/09/2025PAT                  30/09/2025   24.00   24.00    0.00       0       0                                                                   CHEZ MME ARLETTE FRIEDMANN                                      1 RUE DES 2 FRERES                                              94230     CACHAN                          FRANCE                          07 78 92 56 95                                                                                                                                                                                                                                                                                                                                                                                                                                                                                                                                                                                                                                                                                                                                                                                                                                                                                                                                                                                                                                                                                                                                                                                                                                                                                                                                                                                                                                                                                                                                                                                                                                                                                                                                                                                                                                                                                                                                                                                                       
7497528   51241515061100 D-7497528   241da705-1a41-46e3-a117-2a6987091005ENQ                                 LDM             11/10/2025MME       LORIEUX                       ANAIS               27/12/1989CHAMPIGNY SUR MARNE                                                                         LORIEUX                       25/09/2025PAT                  30/09/2025   24.00   24.00    0.00       0       0                                                                                                                                   12 IMPASSE DES CHENES VERTS                                     83340     FLASSANS SUR ISSOLE             FRANCE                          07 85 75 16 46                                                                                                                                                                                                                                                                                                                                                                                                                                                                                                                                                                                                                                                                                                                                                                                                                                                                                                                                                                                                                                                                                                                                                                                                                                                                                                                                                                                                                                                                                                                                                                                                                                                                                                                                                                                                                                                                                                                                                                                                       
7388590   306005906511631D-7388590   4be34a99-8bf9-4374-8aa4-083b57eb5affENQ                                 LDM             11/10/2025MME       ABAMBA                        MAYEYE              05/05/1977                                                                                                                          25/09/2025PAT                  30/09/2025   24.00   24.00    0.00       0       0                                                                   APPT 505                                                        41 RUE DU CHATEAU LANDON                                        75010     PARIS                           FRANCE                          07 58 51 00 87                                                                                                                                                                                                                                                                                                                                                                                                                                                                                                                                                                                                                                                                                               N D'USAGE TSHILUMBA NTUMBA                                                                                                                                                                                                                                                                                                                                                                                                                                                                                                                                                                                                                                                                                                                                                                                                                                                                                                                                                                                                                                                                                                                                                                                                                                                                              
8020370   43636146751100 D-8020370   436b3026-29ed-432e-8bbe-124f955ca8d3ENQ                                 LDM             11/10/2025MME       PERRIN                        NANCY               07/01/1985                                                  52200     FRANCE                                                        25/09/2025PAT                  30/09/2025   24.00   24.00    0.00       0       0                                                                   AMITIES TSIGANES                                                15 RUE LAURENT BONNEVAY                                         54100     NANCY                           FRANCE                          06 73 78 13 00                                                                                                                                                                                                                                                                                                                                                                                                                                                                                                                                                                                                                                                                                                                                                                                                                                                                                                                                                                                                                                                                                                                                                                                                                                                                                                                                                                                                                                                                                                                                                                                                                                                                                                                                                                                                                                                                                                                                                                                                       
9108945   00000165793    D-9108945   77cad980-1d3a-405a-9ace-602e5499c4f8ENQ                                 LDM             11/10/2025MME       LEGRAVE                       SINDY VICTOIRE      21/07/1985POINTE-A-PITRE                                    971       FRANCE                          MEYAPIN                       25/09/2025PAT                  30/09/2025   24.00   24.00    0.00       0       0                                                                                                                                   RUE DE L'ALLEMAND               LES HAUTS DE MALENDURE          97125     BOUILLANTE                      FRANCE                          06 90 60 70 25                                                                                                                                                                                                                                                                                                                                                                                                                                                                                                                                                                                                                                                                                                                                                                                                                                                                                                                                                                                                                                                                                                                                                                                                                                                                                                                                                                                                                                                                                                                                                                                                                                                                                                                                                                                                                                                                                                                                                                                                       
7763851   51266191871100 D-7763851   88dc7c1f-6837-47fc-bf5c-621c9083eeaeENQ                                 LDM             11/10/2025M         PRIEUR                        ARNAUD              21/11/1979BOURGES                                           18        FRANCE                                                        25/09/2025PA                   30/09/2025   24.00   24.00    0.00       0       0                                                                   BAT A                                                           28 RUE COURLOISON                                               77160     PROVINS                         FRANCE                                                                                                                                                                                                                                                                                                                                                                                                                                                                                                                                                                                                                                                                                                                                                                                                                                                                                                                                                                                                                                                                                                                                                                                                                                                                                                                                                                                                                                                                                                                                                                                                                                                                                                                                                                                                                                                                                                                                                                                                                                               
8598784   50634247812100 D-8598784   73138c69-7535-4de0-81dc-a660e74c65aeENQ                                 LDM             11/10/2025MME       FABLE                         PATRICIA            29/01/1966GRENOBLE                                          38        FRANCE                          GAUCHER                       25/09/2025PA                   30/09/2025   24.00   24.00    0.00       0       0                                                                                                                                   41 ROUTE DE LA TURBALLE                                         44350     GUERANDE                        FRANCE                                                                                                                                                                                                                                                                                                                                                                                                                                                                                                                                                                                                                                                                                                                                                                                                                                                                                                                                                                                                                                                                                                                                                                                                                                                                                                                                                                                                                                                                                                                                                                                                                                                                                                                                                                                                                                                                                                                                                                                                                                               
7764127   51174427979002 D-7764127   2703aef9-acc8-4fd2-93e2-77316b0c15a1ENQ                                 LDM             11/10/2025M         MFOIHAYA                      SOILIH              22/09/1983MARSEILLE                                         13        FRANCE                                                        25/09/2025PAT                  30/09/2025   24.00   24.00    0.00       0       0                                                                                                                                   10 RUE LUCIEN SAMPAIX                                           91390     MORSANG SUR ORGE                FRANCE                          07 82 93 57 20                                                                                                                                                                                                                                                                                                                                                                                                                                                                                                                                                                                                                                                                                                                                                                                                                                                                                                                                                                                                                                                                                                                                                                                                                                                                                                                                                                                                                                                                                                                                                                                                                                                                                                                                                                                                                                                                                                                                                                                                       
7154935   51120191781100 D-7154935   a4ae6e39-cece-4c58-9240-9bdc89baa3e3ENQ                                 LDM             11/10/2025          MEHRABANEH                    SHAHIN              13/11/1965TEHRAN                                                                                      AGHAMIRZA                     25/09/2025PAT                  30/09/2025   24.00   24.00    0.00       0       0                                                                                                                                   2 RUE JEAN XXIII                                                95220     HERBLAY SUR SEINE               FRANCE                          06 50 17 13 30                                                                                                                                                                                                                                                                                                                                                                                                                                                                                                                                                                                                                                                                                                                                                                                                                                                                                                                                                                                                                                                                                                                                                                                                                                                                                                                                                                                                                                                                                                                                                                                                                                                                                                                                                                                                                                                                                                                                                                                                       
8603839   51104130272100 D-8603839   3f52f19b-3bd1-4048-83a4-5d95bdd034eeENQ                                 LDM             11/10/2025M         MATOUK                        ALI                 10/04/1967SOUK EL TENINE                                    99        ALGERIE                                                       25/09/2025PAT                  30/09/2025   24.00   24.00    0.00       0       0                                                                   1ER ETAGE                                                       162 BD DE BEZONS                                                78500     SARTROUVILLE                    FRANCE                          07 65 81 02 48                                                                                                                                                                                                                                                                                                                                                                                                                                                                                                                                                                                                                                                                                                                                                                                                                                                                                                                                                                                                                                                                                                                                                                                                                                                                                                                                                                                                                                                                                                                                                                                                                                                                                                                                                                                                                                                                                                                                                                                                       
7154863   51024342546100 D-7154863   492ef7ad-43ea-432c-8437-0f3ed5d6e46fENQ                                 LDM             11/10/2025MME       MAJA                          MAUD                11/07/1989LAGNY-SUR-MARNE                                   77        FRANCE                                                        25/09/2025PAT                  30/09/2025   24.00   24.00    0.00       0       0                                                                   APPT 103                                                        2 B ROUTE DE BALESTE                                            40200     MIMIZAN                         FRANCE                          07 64 04 83 50                                                                                                                                                                                                                                                                                                                                                                                                                                                                                                                                                                                                                                                                                                                                                                                                                                                                                                                                                                                                                                                                                                                                                                                                                                                                                                                                                                                                                                                                                                                                                                                                                                                                                                                                                                                                                                                                                                                                                                                                       
8292774   51056993903100 D-8292774   fc0240a7-309f-481d-bad2-64569588d937ENQ                                 LDM             11/10/2025M         NDIAYE                        ALHASSANE           12/04/1988ANNECY                                            74        FRANCE                                                        25/09/2025PA                   30/09/2025   24.00   24.00    0.00       0       0                                                                   APPT 2 ESC 1                                                    14 ALLEE DES CEDRES                                             78200     MAGNANVILLE                     FRANCE                                                                                                                                                                                                                                                                                                                                                                                                                                                                                                                                                                                                                                                                                                                                                                                                                                                                                                                                                                                                                                                                                                                                                                                                                                                                                                                                                                                                                                                                                                                                                                                                                                                                                                                                                                                                                                                                                                                                                                                                                                               
9108013   00000268044    D-9108013   b386de15-6cdf-4d0a-829e-65b99344eb5bENQ                                 LDM             11/10/2025M         PETRUS                        FRANCOIS GAETAN     06/08/1955SAINT CLAUDE                                      99        GUADELOUPE                                                    25/09/2025PAT                  30/09/2025   24.00   24.00    0.00       0       0                                                                                                                                   9 IMP GLIGLI                                                    97180     STE ANNE                        FRANCE                          06 90 98 82 80                                                                                                                                                                                                                                                                                                                                                                                                                                                                                                                                                                                                                                                                                                                                                                                                                                                                                                                                                                                                                                                                                                                                                                                                                                                                                                                                                                                                                                                                                                                                                                                                                                                                                                                                                                                                                                                                                                                                                                                                       
7841869   49048918       D-7841869   928248d7-46b6-46c0-a20b-a1b54eccb61dENQ                                 LDM             11/10/2025M         DUCROCQ                       JIMMY               31/08/1989DOMONT                                            95        FRANCE                                                        25/09/2025PAT                  30/09/2025   24.00   24.00    0.00       0       0                                                                                                                                   96 RUE DU GENERAL DE GAULLE                                     60149     ST CREPIN IBOUVILLERS           FRANCE                          03 75 41 54 15                                                                                                                                                                                                                                                                                                                                                                                                                                                                                                                                                                                                                                                                                                                                                                                                                                                                                                                                                                                                                                                                                                                                                                                                                                                                                                                                                                                                                                                                                                                                                                                                                                                                                                                                                                                                                                                                                                                                                                                                       
7764236   50651092651100 D-7764236   3896dbcf-29c4-41b1-ab91-4d430c5e2c78ENQ                                 LDM             11/10/2025MME       KOZOLINSKY                    ISABELLE            12/10/1976DUNKERQUE                                         59        FRANCE                          DEBROCK                       25/09/2025PA                   30/09/2025   24.00   24.00    0.00       0       0                                                                                                                                   65 RUE RANCY                                                    57390     AUDUN LE TICHE                  FRANCE                                                                                                                                                                                                                                                                                                                                                                                                                                                                                                                                                                                                                                                                                                                                                                                                                                                                                                                                                                                                                                                                                                                                                                                                                                                                                                                                                                                                                                                                                                                                                                                                                                                                                                                                                                                                                                                                                                                                                                                                                                               
8597998   50607779911100 D-8597998   04d062da-7203-4e35-afdd-6b527781b390ENQ                                 LDM             11/10/2025MME       MANY                          VANESSA             26/01/1982PARIS 14E ARRONDISSEMENT                          75        FRANCE                                                        25/09/2025PAT                  30/09/2025   24.00   24.00    0.00       0       0                                                                                                                                   36 CHEMIN BLANC                                                 77580     VILLIERS SUR MORIN              FRANCE                          06 99 54 45 60                                                                                                                                                                                                                                                                                                                                                                                                                                                                                                                                                                                                                                                                                                                                                                                                                                                                                                                                                                                                                                                                                                                                                                                                                                                                                                                                                                                                                                                                                                                                                                                                                                                                                                                                                                                                                                                                                                                                                                                                       
7245985   35089374285    D-7245985   380a593d-b462-4bbf-8953-3ff6cf09b20fENQ                                 LDM             11/10/2025M         HEREDIA                       JOSEPH              19/05/1973NICE                                              06        FRANCE                                                        25/09/2025PAT                  30/09/2025   24.00   24.00    0.00       0       0                                                                                                                                   364 AV DE LA REPUBLIQUE                                         83000     TOULON                          FRANCE                          07 58 05 37 45                                                                                                                                                                                                                                                                                                                                                                                                                                                                                                                                                                                                                                                                                                                                                                                                                                                                                                                                                                                                                                                                                                                                                                                                                                                                                                                                                                                                                                                                                                                                                                                                                                                                                                                                                                                                                                                                                                                                                                                                       
7328467   9712180353     D-7328467   2932d919-9e82-40bc-b0c9-35b8116335d8ENQ                                 LDM             11/10/2025MME       WILLAUME                      MARLENE             08/12/1976NIMES                                             30        FRANCE                          WILLAUME                      25/09/2025PAT                  30/09/2025   24.00   24.00    0.00       0       0                                                                   APPT 542 BAT 35                 HLM BLANCAIRE                   63 RUE DES GENETS                                               83200     TOULON                          FRANCE                          06 17 23 71 69                                                                                                                                                                                                                                                                                                                                                                                                                                                                                                                                                                                                                                                                                                                                                                                                                                                                                                                                                                                                                                                                                                                                                                                                                                                                                                                                                                                                                                                                                                                                                                                                                                                                                                                                                                                                                                                                                                                                                                                                       
8298101   51090398581100 D-8298101   a14c33ff-fe58-4f87-a605-6605b9887e47ENQ                                 LDM             11/10/2025M         BOUTEILLER                    ANTHONY             15/03/1988VALENCIENNES                                      59        FRANCE                                                        25/09/2025PA                   30/09/2025   24.00   24.00    0.00       0       0                                                                                                                                   3 ALLEE PARMENTIER                                              13127     VITROLLES                       FRANCE                                                                                                                                                                                                                                                                                                                                                                                                                                                                                                                                                                                                                                                                                                                                                                                                                                                                                                                                                                                                                                                                                                                                                                                                                                                                                                                                                                                                                                                                                                                                                                                                                                                                                                                                                                                                                                                                                                                                                                                                                                               
8017682   44797426181100 D-8017682   93185e0a-ccf5-4b57-91c2-86f48614063cENQ                                 LDM             30/08/2025M         AROURI                        RAYENE              22/01/1990PARIS 20E ARRONDISSEMENT                          75        FRANCE                                                        25/09/2025N                                     0       0       0       0       0                                                                                                                                                                                                                                                                                                                                                                                                                                                                                                                                                                                                                                                                                                                                                                                                                                                                                                                                                                                                                                                                                                                                                                                                                                                                                                                                                                                                                                                                                                                                                                                                                                                                                                                                                                                                                                                                                                                                                                                                                                                                                                                                                                                                                                                                                                  
8604632   51136521429003 D-8604632   b8e5136d-c8f8-4ff6-a31a-426a629601daENQ                                 LDM             30/08/2025M         CASERTA                       GUY                 27/01/1981MONT-SAINT-MARTIN                                 54        FRANCE                                                        25/09/2025N                                     0       0       0       0       0                                                                                                                                                                                                                                                                                                                                                                                                                                                                                                                                                                                                                                                                                                                                                                                                                                                                                                                                                                                                                                                                                                                                                                                                                                                                                                                                                                                                                                                                                                                                                                                                                                                                                                                                                                                                                                                                                                                                                                                                                                                                                                                                                                                                                                                                                                  
8604453   51104410852100 D-8604453   051064ab-250a-429e-9159-4274827bd28fENQ                                 LDM             06/09/2025M         VIGUET POUPELLOZ              MARCEAU             30/07/1987OULLINS                                           69        FRANCE                                                        25/09/2025N                                     0       0       0       0       0                                                                                                                                                                                                                                                                                                                                                                                                                                                                                                                                                                                                                                                                                                                                                                                                                                                                                                                                                                                                                                                                                                                                                                                                                                                                                                                                                                                                                                                                                                                                                                                                                                                                                                                                                                                                                                                                                                                                                                                                                                                                                                                                                                                                                                                                                                  
7421146   77521110       D-7421146   c38e1083-9902-40ab-b815-29196d1753c4CON           3763518    3731626    LDM             30/08/2025M         SAUNIER                       JEAN PIERRE         27/11/1976PARIS                                             75        FRANCE                                                        25/09/2025N                    30/09/2025  -24.00    0.00  -24.00       0       0                                                                                                                                                                                                                                                                                                                                                                                                                                                                                                                                                                                                                                                                                                                                                                                                                                                                                                                                                                                                                                                                                                                                                                                                                                                                                                                                                                                                                                                                                                                                                                                                                                                                                                                                                                                                                                                                                                                                                                                                                                                                                                                                                                                                                                                                                                  
9106720   00000118116    D-9106720   a4a10763-9705-4511-ada5-01d215c23669CON           3766485    3766485    LDM             30/08/2025M         VENUS                         PAUL CHRISTOPHE     10/10/1974LES ABYMES                                        971       FRANCE                                                        25/09/2025N                    30/09/2025  -24.00    0.00  -24.00       0       0                                                                                                                                                                                                                                                                                                                                                                                                                                                                                                                                                                                                                                                                                                                                                                                                                                                                                                                                                                                                                                                                                                                                                                                                                                                                                                                                                                                                                                                                                                                                                                                                                                                                                                                                                                                                                                                                                                                                                                                                                                                                                                                                                                                                                                                                                                  
